:100000000C945D000C9485000C9485000C94850084
:100010000C9485000C9485000C9485000C9485004C
:100020000C9485000C9485000C9485000C9485003C
:100030000C9485000C9485000C9485000C9485002C
:100040000C943A030C9485000C9408030C94E2027F
:100050000C9485000C9485000C9485000C9485000C
:100060000C9485000C9485000000000024002700FB
:100070002A0000000000250028002B0004040404CE
:100080000404040402020202020203030303030342
:10009000010204081020408001020408102001021F
:1000A00004081020000000080002010000030407FB
:1000B0000000000000000000EA0611241FBECFEF80
:1000C000D8E0DEBFCDBF11E0A0E0B1E0EEE3FEE09E
:1000D00002C005900D92A231B107D9F723E0A2E149
:1000E000B1E001C01D92A23EB207E1F710E0CDE5FC
:1000F000D0E004C02197FE010E941707CC35D1073C
:10010000C9F70E9484030C941D070C940000AF9261
:10011000BF92CF92DF92EF92FF920F931F93CF93F4
:10012000DF936C017B018B01040F151FEB015E0156
:10013000AE18BF08C017D10759F06991D601ED91EB
:10014000FC910190F081E02DC6010995892B79F78A
:10015000C501DF91CF911F910F91FF90EF90DF903C
:10016000CF90BF90AF900895FC01538D448D252F03
:1001700030E0842F90E0821B930B541710F0CF9641
:10018000089501970895FC01918D828D981761F073
:10019000A28DAE0FBF2FB11D5D968C91928D9F5F8A
:1001A0009F73928F90E008958FEF9FEF0895FC0169
:1001B000918D828D981731F0828DE80FF11D858D1C
:1001C00090E008958FEF9FEF0895FC01918D228DAF
:1001D000892F90E0805C9F4F821B91098F73992734
:1001E00008958BE191E00E94E50021E0892B09F45C
:1001F00020E0822F089580E090E0892B29F00E9472
:10020000F10081110C9400000895FC01A48DA80F49
:10021000B92FB11DA35ABF4F2C91848D90E0019648
:100220008F739927848FA689B7892C93A089B18968
:100230008C91837080648C93938D848D981306C009
:100240000288F389E02D80818F7D80830895EF926D
:10025000FF920F931F93CF93DF93EC0181E0888F80
:100260009B8D8C8D98131AC0E889F989808185FF50
:1002700015C09FB7F894EE89FF896083E889F989F2
:1002800080818370806480839FBF81E090E0DF91F4
:10029000CF911F910F91FF90EF900895F62E0B8D47
:1002A00010E00F5F1F4F0F731127E02E8C8D8E1102
:1002B0000CC00FB607FCFACFE889F989808185FF69
:1002C000F5CFCE010E940501F1CFEB8DEC0FFD2F94
:1002D000F11DE35AFF4FF0829FB7F8940B8FEA8924
:1002E000FB8980818062CFCFCF93DF93EC01888D33
:1002F0008823B9F0AA89BB89E889F9898C9185FDA1
:1003000003C0808186FD0DC00FB607FCF7CF8C912E
:1003100085FFF2CF808185FFEDCFCE010E940501E0
:10032000E9CFDF91CF91089590E0FC01EC55FF4FAC
:100330002491FC01E057FF4F3491FC01E458FF4F3A
:10034000E491EE23C9F0222339F0233001F1A8F41F
:10035000213019F1223029F1F0E0EE0FFF1FEE58A5
:10036000FF4FA591B4918FB7F894EC91611126C01D
:1003700030953E233C938FBF08952730A9F0283055
:10038000C9F0243049F7809180008F7D03C08091AF
:1003900080008F7780938000DFCF84B58F7784BD16
:1003A000DBCF84B58F7DFBCF8091B0008F778093BA
:1003B000B000D2CF8091B0008F7DF9CF3E2BDACF45
:1003C000CF93DF9390E0FC01E057FF4F24918458D6
:1003D0009F4FFC0184918823D1F090E0880F991FF2
:1003E000FC01E859FF4FA591B491FC01EE58FF4F75
:1003F000C591D49161110EC09FB7F8948C91E22FF2
:10040000E0958E238C932881E223E8839FBFDF91C0
:10041000CF9108958FB7F894EC91E22BEC938FBFB6
:10042000F6CF3FB7F8948091170190911801A091F1
:100430001901B0911A0126B5A89B05C02F3F19F0EC
:100440000196A11DB11D3FBFBA2FA92F982F882754
:10045000BC01CD01620F711D811D911D42E0660F2F
:10046000771F881F991F4A95D1F708958F929F9201
:10047000AF92BF92CF92DF92EF92FF926B017C011D
:100480000E9411024B015C01C114D104E104F1048A
:10049000B9F00E941102681979098A099B09683E1E
:1004A00073408105910580F321E0C21AD108E1086B
:1004B000F10888EE880E83E0981EA11CB11CE4CFE1
:1004C000FF90EF90DF90CF90BF90AF909F908F9074
:1004D0000895EF92FF920F931F93CF93DF93D82F3E
:1004E000F62EE72EC5E1C827C627C727862F972FE8
:1004F00010E000E0F801E454FE4F2081C2270F5FB6
:100500001F4F08171907B1F76BE18BE191E00E94CB
:1005100027016D2F8BE191E00E9427016E2D8BE169
:1005200091E00E9427016F2D8BE191E00E9427014D
:100530006EE08BE191E00E942701F12CE12CF701A4
:10054000E454FE4F60818BE191E00E9427018FEF20
:10055000E81AF80A0E151F0591F76C2F8BE191E050
:100560000E9427018BE191E0DF91CF911F910F91C4
:10057000FF90EF900C9474018BE191E00E94E500F4
:10058000892BD1F38BE191E00E94C30008958EBDC9
:1005900000000DB407FEFDCF8EB508951F93CF93D5
:1005A000DF93162FD42FC22F0E94C702812F0E94E3
:1005B000C7028D2F0E94C7028C2FDF91CF911F9110
:1005C0000C94C7021F920F920FB60F9211242F9313
:1005D0003F934F935F936F937F938F939F93AF93CB
:1005E000BF93EF93FF938BE191E00E940501FF9190
:1005F000EF91BF91AF919F918F917F916F915F919B
:100600004F913F912F910F900FBE0F901F90189513
:100610001F920F920FB60F9211242F938F939F93D7
:10062000EF93FF93E0912B01F0912C018081E091F9
:100630003101F091320182FD1BC090818091340123
:100640008F5F8F7320913501821741F0E091340163
:10065000F0E0E55EFE4F958F80933401FF91EF91BE
:100660009F918F912F910F900FBE0F901F90189513
:100670008081F4CF1F920F920FB60F9211242F9307
:100680003F938F939F93AF93BF938091130190916A
:100690001401A0911501B09116013091120123E0CF
:1006A000230F2D3758F50196A11DB11D209312017E
:1006B0008093130190931401A0931501B093160138
:1006C0008091170190911801A0911901B0911A0120
:1006D0000196A11DB11D8093170190931801A0935D
:1006E0001901B0931A01BF91AF919F918F913F91E2
:1006F0002F910F900FBE0F901F90189526E8230F93
:100700000296A11DB11DD2CFCF93DF9300D0CDB7FC
:10071000DEB7789484B5826084BD84B5816084BD81
:1007200085B5826085BD85B5816085BD80916E008F
:10073000816080936E0010928100809181008260C0
:1007400080938100809181008160809381008091FD
:1007500080008160809380008091B10084608093EC
:10076000B1008091B00081608093B00080917A00E8
:10077000846080937A0080917A00826080937A000E
:1007800080917A00816080937A0080917A008068FD
:1007900080937A001092C10061E08AE00E94E0013B
:1007A00061E08BE00E94E00160E08CE00E94E001EB
:1007B00061E08DE00E94E00161E08AE00E94940126
:1007C000E0912B01F0912C0182E08083E0912701E0
:1007D000F09128011082E0912901F0912A0180E135
:1007E000808310923301E0912F01F091300186E077
:1007F0008083E0912D01F0912E01808180618083C2
:10080000E0912D01F0912E01808188608083E0913C
:100810002D01F0912E01808180688083E0912D016F
:10082000F0912E0180818F7D808383E58CBD1DBC7E
:100830008CB5837F8CBD3BE8C32EDD24D394662426
:10084000639490EC792E20E0A22E20E0B22EF12CC1
:10085000E12C80E08111FECF0E94BC028B31E1F7D8
:100860000E94BC028A830E94BC02082F10E0102F55
:1008700000270E94BC02082B0E94BC028E3061F748
:10088000E016F10650F40E94BC02F701E153FD4F5F
:100890008083C70101967C01F3CF0E94BC02809146
:1008A000CF02813079F58093BC011092BD0188E0C0
:1008B0008093BE0183E58093BF0184E58093C001EE
:1008C0008BE48093C10185E38093C20180E3809330
:1008D000C3018093C4018FE58093C50182E38093B7
:1008E000C6016BE070E08A810E946902A114B10424
:1008F00009F4ADCF0E94F100882309F4A2CF0E9431
:1009000000009FCF8091CF02823041F58093BC01DF
:100910001092BD018091D002843929F41092BE0159
:1009200062E070E0E0CF8091D0028539B9F3809128
:10093000D002863999F38091D002873979F380917A
:10094000D002883959F38091D0028E3939F38091E1
:10095000D0028F3919F37092BD01E2CF8091CF029E
:10096000833009F057C093E09093BC011092BD0111
:100970008091D002803819F41092BE010EC080918F
:10098000D002813819F46092BE0107C08091D00274
:10099000803931F4E2E0E093BE0163E070E0A3CF80
:1009A0008091D002813921F4F2E0F093BE01F5CFBD
:1009B0008091D002823921F48AE08093BE01EDCF8C
:1009C0008091D002843911F482E3F7CF8091D00274
:1009D000853911F489E1F1CF8091D002863911F483
:1009E00082E0EBCF8091D002873969F28091D0020A
:1009F000883921F492E09093BE01CFCF8091D0024C
:100A00008A3911F485E5D9CF8091D0028F3909F464
:100A1000B3CFA1CF8091CF028630A9F49091D002BC
:100A20009093BB019091D1029093BA019091D20220
:100A30009093B9019091D3029093B8018093BC0137
:100A40001092BD016DCF8091CF02803109F04EC070
:100A50009091D0029091D1021091D2029091D30244
:100A60009091D4029091D5029091D6020091D70234
:100A7000F090D8029091D9029091DA028093BC0153
:100A80001092BD0160E08AE00E94940160E08DE078
:100A90000E94940162E370E080E090E00E943602E0
:100AA00061E08AE00E949401C6010197F1F760E0DD
:100AB0008AE00E949401C6010197F1F761E08AE0A3
:100AC0000E949401C6010197F1F760E08AE00E945C
:100AD000940162E370E080E090E00E94360220E042
:100AE00040E06F2D802F0E94CE0215C08091CF0272
:100AF0008131C1F46091D0021091D1028093BC0188
:100B00001092BD0170E090E080E00E94360261E04A
:100B10008AE00E949401612F70E090E080E00E94E2
:100B20003602FECE9091CF02923189F41091D0021C
:100B30008091D1028091D2026091D3024091D4027F
:100B40002091D5029093BC011092BD01CCCF809131
:100B5000CF02833109F094C0E090D0029091D1028D
:100B60009090D2024090D3028090D4025090D5024F
:100B70003090D6022090D7022091D8028093BC01F9
:100B80001092BD0190FECCCEFE2CE92E10E000E0CC
:100B9000E82DE860E9830E151F0550F5F801E752CE
:100BA000FD4F20814091B80160E0882D0E94CE0267
:100BB000F801E652FD4F20814091B80160E0898143
:100BC0000E94CE028091B8019091B901A091BA0122
:100BD000B091BB010196A11DB11D8093B801909306
:100BE000B901A093BA01B093BB010E5F1F4FD3CFE1
:100BF0008091B8019091B901A091BA01B091BB0167
:100C00000197A109B1098093B8019093B901A0930C
:100C1000BA01B093BB014091B8016091B90120E0E5
:100C2000852D0E94CE0295FE0AC04091B8016091C8
:100C3000B90120E0832D0E94CE022812F6CF8091C8
:100C4000B8019091B901A091BA01B091BB01019690
:100C5000A11DB11D8093B8019093B901A093BA0171
:100C6000B093BB0196FE08C020E040E060E080EF5A
:100C70000E94CE0280FDF8CF94FE52CE642D4CCF60
:100C80008091CF02843109F04FC0E090D002609192
:100C9000D1025090D202FE2CE62E8093BC0110921D
:100CA000BD0110E000E0452C689443F80E151F05C7
:100CB00098F54091B8016091B9014801F2E08F0EBA
:100CC000911C20E0852D0E94CE02F401E454FE4FD9
:100CD00080834091B8016091B9010D5F1F4F20E002
:100CE000842D0E94CE0204541E4FF801808380910F
:100CF000B8019091B901A091BA01B091BB010196E0
:100D0000A11DB11D8093B8019093B901A093BA01C0
:100D1000B093BB018401CACFF701E254FE4F1082A9
:100D2000B7016D5F7F4FDFCD8091CF02873109F42E
:100D3000DDCD9091CF02983169F48091D0028091FD
:100D4000D1026091D2024091D3022091D4029093BB
:100D5000BC0116C08091CF02893109F4C7CD8091C2
:100D6000CF028A3191F48091D0028091D1026091BA
:100D7000D2024091D3022091D402FAE1F093BC0157
:100D80001092BD011092BF0116C09091CF029B310D
:100D9000C9F48091D0028091D1022091D202409179
:100DA000D3022091D4029093BC011092BD01109205
:100DB000BF0120E060E00E94CE028093BE0164E0AB
:100DC00070E091CD9091CF029C3109F4B6CF809123
:100DD000CF028CCDEBE1F1E01382128288EE93E03A
:100DE000A0E0B0E084839583A683B78384E091E09C
:100DF0009183808385EC90E09587848784EC90E0F4
:100E00009787868780EC90E0918B808B81EC90E0D7
:100E1000938B828B82EC90E0958B848B86EC90E0B8
:100E2000978B868B118E128E138E148E0895EE0F73
:0E0E3000FF1F0590F491E02D0994F894FFCF78
:100E3E000000000027018700B4007401E500C30024
:020E4E00D700CB
:00000001FF
